:020000040000FA
:10000000831685018601831285010D2014201B2093
:1000100022202920302037200528E13081000B11D3
:100020003E200B1D10280800E13081000B115820E4
:100030000B1D17280800E13081000B1172200B1DE9
:100040001E280800E13081000B118C200B1D252893
:100050000800E13081000B11A6200B1D2C280800A0
:10006000E13081000B11C0200B1D332808007E30C9
:1000700081000B11DA200B1D3A280800833086001E
:100080000514F4200510F53086008514F420851041
:10009000F63086000515F4200511F530860085152B
:1000A000F4208511833086000516F420051208001F
:1000B000803086000514F4200510FD30860085147C
:1000C000F4208510E33086000515F4200511DF309B
:1000D00086008515F4208511803086000516F420F1
:1000E00005120800803086000514F4200510BE308B
:1000F00086008514F4208510BE3086000515F42096
:100100000511DD3086008515F4208511E330860069
:100110000516F42005120800803086000514F4202E
:100120000510F63086008514F4208510E630860030
:100130000515F4200511D63086008515F4208511AB
:10014000B93086000516F4200512080080308600BC
:100150000514F4200510B63086008514F4208510AF
:10016000B63086000515F4200511B63086008515D9
:10017000F4208511BE3086000516F4200512080013
:10018000DD3086000514F4200510BA308600851491
:10019000F4208510B63086000515F4200511AE3028
:1001A00086008515F4208511DD3086000516F420C3
:1001B00005120800F73086000514F4200510F7300A
:1001C00086008514F4208510F73086000515F4208C
:1001D0000511F73086008515F4208511F73086006B
:1001E0000516F42005120800FF309000900BF62849
:0201F000080005
:00000001FF
