:020000040000FA
:1000000083168601FC3085008312850190019101E1
:1000100092013C200C200928051D1228851D22284C
:1000200012100800121808001214900A10080A3C56
:10003000031D08009001910A11080A3C031D0800E5
:10004000910108001218080012141008003C031D4A
:100050009003003C03192D2808001108003C0319E7
:1000600008009103900A900A900A900A900A900A58
:10007000900A900A900A080010084920860005148A
:10008000542005101108492086008514542085103D
:1000900008008207C034F934A434B034993492345F
:1000A0008234F83480349834FF309300930B562810
:0200B000080046
:00000001FF
